{
    "contractName": "MasterChef",
    "abi": [
        {
            "inputs": [
                {
                    "internalType": "contract IERC20",
                    "name": "_rewardToken",
                    "type": "address"
                }
            ],
            "stateMutability": "nonpayable",
            "type": "constructor"
        },
        {
            "anonymous": false,
            "inputs": [
                {
                    "indexed": true,
                    "internalType": "address",
                    "name": "user",
                    "type": "address"
                },
                {
                    "indexed": true,
                    "internalType": "uint256",
                    "name": "pid",
                    "type": "uint256"
                },
                {
                    "indexed": false,
                    "internalType": "uint256",
                    "name": "amount",
                    "type": "uint256"
                }
            ],
            "name": "Deposit",
            "type": "event"
        },
        {
            "anonymous": false,
            "inputs": [
                {
                    "indexed": true,
                    "internalType": "address",
                    "name": "user",
                    "type": "address"
                },
                {
                    "indexed": true,
                    "internalType": "uint256",
                    "name": "pid",
                    "type": "uint256"
                },
                {
                    "indexed": false,
                    "internalType": "uint256",
                    "name": "amount",
                    "type": "uint256"
                }
            ],
            "name": "EmergencyWithdraw",
            "type": "event"
        },
        {
            "anonymous": false,
            "inputs": [
                {
                    "indexed": true,
                    "internalType": "address",
                    "name": "previousOwner",
                    "type": "address"
                },
                {
                    "indexed": true,
                    "internalType": "address",
                    "name": "newOwner",
                    "type": "address"
                }
            ],
            "name": "OwnershipTransferred",
            "type": "event"
        },
        {
            "anonymous": false,
            "inputs": [
                {
                    "indexed": true,
                    "internalType": "address",
                    "name": "user",
                    "type": "address"
                },
                {
                    "indexed": true,
                    "internalType": "uint256",
                    "name": "pid",
                    "type": "uint256"
                },
                {
                    "indexed": false,
                    "internalType": "uint256",
                    "name": "amount",
                    "type": "uint256"
                }
            ],
            "name": "Withdraw",
            "type": "event"
        },
        {
            "inputs": [],
            "name": "BONUS_MULTIPLIER",
            "outputs": [
                {
                    "internalType": "uint256",
                    "name": "",
                    "type": "uint256"
                }
            ],
            "stateMutability": "view",
            "type": "function"
        },
        {
            "inputs": [
                {
                    "internalType": "uint256",
                    "name": "_allocPoint",
                    "type": "uint256"
                },
                {
                    "internalType": "contract IERC20",
                    "name": "_lpToken",
                    "type": "address"
                },
                {
                    "internalType": "bool",
                    "name": "_withUpdate",
                    "type": "bool"
                }
            ],
            "name": "add",
            "outputs": [],
            "stateMutability": "nonpayable",
            "type": "function"
        },
        {
            "inputs": [],
            "name": "bonusEndBlock",
            "outputs": [
                {
                    "internalType": "uint256",
                    "name": "",
                    "type": "uint256"
                }
            ],
            "stateMutability": "view",
            "type": "function"
        },
        {
            "inputs": [
                {
                    "internalType": "uint256",
                    "name": "_pid",
                    "type": "uint256"
                },
                {
                    "internalType": "uint256",
                    "name": "_amount",
                    "type": "uint256"
                }
            ],
            "name": "deposit",
            "outputs": [],
            "stateMutability": "nonpayable",
            "type": "function"
        },
        {
            "inputs": [
                {
                    "internalType": "uint256",
                    "name": "_amount",
                    "type": "uint256"
                }
            ],
            "name": "depositRewardTokens",
            "outputs": [],
            "stateMutability": "nonpayable",
            "type": "function"
        },
        {
            "inputs": [
                {
                    "internalType": "uint256",
                    "name": "_pid",
                    "type": "uint256"
                }
            ],
            "name": "emergencyWithdraw",
            "outputs": [],
            "stateMutability": "nonpayable",
            "type": "function"
        },
        {
            "inputs": [],
            "name": "endRewardBlock",
            "outputs": [
                {
                    "internalType": "uint256",
                    "name": "",
                    "type": "uint256"
                }
            ],
            "stateMutability": "view",
            "type": "function"
        },
        {
            "inputs": [
                {
                    "internalType": "uint256",
                    "name": "_from",
                    "type": "uint256"
                },
                {
                    "internalType": "uint256",
                    "name": "_to",
                    "type": "uint256"
                }
            ],
            "name": "getMultiplier",
            "outputs": [
                {
                    "internalType": "uint256",
                    "name": "",
                    "type": "uint256"
                }
            ],
            "stateMutability": "view",
            "type": "function"
        },
        {
            "inputs": [
                {
                    "internalType": "uint256",
                    "name": "_pid",
                    "type": "uint256"
                }
            ],
            "name": "getReward",
            "outputs": [
                {
                    "internalType": "uint256",
                    "name": "",
                    "type": "uint256"
                }
            ],
            "stateMutability": "view",
            "type": "function"
        },
        {
            "inputs": [],
            "name": "massUpdatePools",
            "outputs": [],
            "stateMutability": "nonpayable",
            "type": "function"
        },
        {
            "inputs": [],
            "name": "migrator",
            "outputs": [
                {
                    "internalType": "contract IMigratorChef",
                    "name": "",
                    "type": "address"
                }
            ],
            "stateMutability": "view",
            "type": "function"
        },
        {
            "inputs": [],
            "name": "owner",
            "outputs": [
                {
                    "internalType": "address",
                    "name": "",
                    "type": "address"
                }
            ],
            "stateMutability": "view",
            "type": "function"
        },
        {
            "inputs": [
                {
                    "internalType": "address",
                    "name": "",
                    "type": "address"
                },
                {
                    "internalType": "uint256",
                    "name": "",
                    "type": "uint256"
                }
            ],
            "name": "pendingRewardOf",
            "outputs": [
                {
                    "internalType": "uint256",
                    "name": "",
                    "type": "uint256"
                }
            ],
            "stateMutability": "view",
            "type": "function"
        },
        {
            "inputs": [
                {
                    "internalType": "uint256",
                    "name": "_pid",
                    "type": "uint256"
                },
                {
                    "internalType": "address",
                    "name": "_user",
                    "type": "address"
                }
            ],
            "name": "pendingRewardToken",
            "outputs": [
                {
                    "internalType": "uint256",
                    "name": "",
                    "type": "uint256"
                }
            ],
            "stateMutability": "view",
            "type": "function"
        },
        {
            "inputs": [
                {
                    "internalType": "uint256",
                    "name": "",
                    "type": "uint256"
                }
            ],
            "name": "poolInfo",
            "outputs": [
                {
                    "internalType": "contract IERC20",
                    "name": "lpToken",
                    "type": "address"
                },
                {
                    "internalType": "uint256",
                    "name": "allocPoint",
                    "type": "uint256"
                },
                {
                    "internalType": "uint256",
                    "name": "lastRewardBlock",
                    "type": "uint256"
                },
                {
                    "internalType": "uint256",
                    "name": "accRewardTokenPerShare",
                    "type": "uint256"
                }
            ],
            "stateMutability": "view",
            "type": "function"
        },
        {
            "inputs": [],
            "name": "poolLength",
            "outputs": [
                {
                    "internalType": "uint256",
                    "name": "",
                    "type": "uint256"
                }
            ],
            "stateMutability": "view",
            "type": "function"
        },
        {
            "inputs": [],
            "name": "renounceOwnership",
            "outputs": [],
            "stateMutability": "nonpayable",
            "type": "function"
        },
        {
            "inputs": [],
            "name": "rewardToken",
            "outputs": [
                {
                    "internalType": "contract IERC20",
                    "name": "",
                    "type": "address"
                }
            ],
            "stateMutability": "view",
            "type": "function"
        },
        {
            "inputs": [],
            "name": "rewardTokenPerBlock",
            "outputs": [
                {
                    "internalType": "uint256",
                    "name": "",
                    "type": "uint256"
                }
            ],
            "stateMutability": "view",
            "type": "function"
        },
        {
            "inputs": [
                {
                    "internalType": "uint256",
                    "name": "_pid",
                    "type": "uint256"
                },
                {
                    "internalType": "uint256",
                    "name": "_allocPoint",
                    "type": "uint256"
                },
                {
                    "internalType": "bool",
                    "name": "_withUpdate",
                    "type": "bool"
                }
            ],
            "name": "set",
            "outputs": [],
            "stateMutability": "nonpayable",
            "type": "function"
        },
        {
            "inputs": [
                {
                    "internalType": "contract IERC20",
                    "name": "_rewardToken",
                    "type": "address"
                },
                {
                    "internalType": "uint256",
                    "name": "_rewardTokenPerBlock",
                    "type": "uint256"
                },
                {
                    "internalType": "uint256",
                    "name": "_startRewardBlock",
                    "type": "uint256"
                },
                {
                    "internalType": "uint256",
                    "name": "_endRewardBlock",
                    "type": "uint256"
                },
                {
                    "internalType": "uint256",
                    "name": "_bonusEndBlock",
                    "type": "uint256"
                },
                {
                    "internalType": "uint256",
                    "name": "_unstakeFrozenTime",
                    "type": "uint256"
                }
            ],
            "name": "setAll",
            "outputs": [],
            "stateMutability": "nonpayable",
            "type": "function"
        },
        {
            "inputs": [
                {
                    "internalType": "uint256",
                    "name": "_bonusEndBlock",
                    "type": "uint256"
                }
            ],
            "name": "setBonusEndBlock",
            "outputs": [],
            "stateMutability": "nonpayable",
            "type": "function"
        },
        {
            "inputs": [
                {
                    "internalType": "uint256",
                    "name": "_endRewardBlock",
                    "type": "uint256"
                }
            ],
            "name": "setEndRewardBlock",
            "outputs": [],
            "stateMutability": "nonpayable",
            "type": "function"
        },
        {
            "inputs": [
                {
                    "internalType": "contract IMigratorChef",
                    "name": "_migrator",
                    "type": "address"
                }
            ],
            "name": "setMigrator",
            "outputs": [],
            "stateMutability": "nonpayable",
            "type": "function"
        },
        {
            "inputs": [
                {
                    "internalType": "contract IERC20",
                    "name": "_rewardToken",
                    "type": "address"
                }
            ],
            "name": "setRewardToken",
            "outputs": [],
            "stateMutability": "nonpayable",
            "type": "function"
        },
        {
            "inputs": [
                {
                    "internalType": "uint256",
                    "name": "_rewardTokenPerBlock",
                    "type": "uint256"
                }
            ],
            "name": "setRewardTokenPerBlock",
            "outputs": [],
            "stateMutability": "nonpayable",
            "type": "function"
        },
        {
            "inputs": [
                {
                    "internalType": "uint256",
                    "name": "_startRewardBlock",
                    "type": "uint256"
                }
            ],
            "name": "setStartRewardBlock",
            "outputs": [],
            "stateMutability": "nonpayable",
            "type": "function"
        },
        {
            "inputs": [
                {
                    "internalType": "uint256",
                    "name": "_unstakeFrozenTime",
                    "type": "uint256"
                }
            ],
            "name": "setUnstakeFrozenTime",
            "outputs": [],
            "stateMutability": "nonpayable",
            "type": "function"
        },
        {
            "inputs": [],
            "name": "startRewardBlock",
            "outputs": [
                {
                    "internalType": "uint256",
                    "name": "",
                    "type": "uint256"
                }
            ],
            "stateMutability": "view",
            "type": "function"
        },
        {
            "inputs": [],
            "name": "totalAllocPoint",
            "outputs": [
                {
                    "internalType": "uint256",
                    "name": "",
                    "type": "uint256"
                }
            ],
            "stateMutability": "view",
            "type": "function"
        },
        {
            "inputs": [
                {
                    "internalType": "address",
                    "name": "newOwner",
                    "type": "address"
                }
            ],
            "name": "transferOwnership",
            "outputs": [],
            "stateMutability": "nonpayable",
            "type": "function"
        },
        {
            "inputs": [
                {
                    "internalType": "contract IERC20",
                    "name": "",
                    "type": "address"
                }
            ],
            "name": "uniqueTokenInPool",
            "outputs": [
                {
                    "internalType": "bool",
                    "name": "",
                    "type": "bool"
                }
            ],
            "stateMutability": "view",
            "type": "function"
        },
        {
            "inputs": [],
            "name": "unstakeFrozenTime",
            "outputs": [
                {
                    "internalType": "uint256",
                    "name": "",
                    "type": "uint256"
                }
            ],
            "stateMutability": "view",
            "type": "function"
        },
        {
            "inputs": [
                {
                    "internalType": "uint256",
                    "name": "_pid",
                    "type": "uint256"
                }
            ],
            "name": "updatePool",
            "outputs": [],
            "stateMutability": "nonpayable",
            "type": "function"
        },
        {
            "inputs": [
                {
                    "internalType": "uint256",
                    "name": "",
                    "type": "uint256"
                },
                {
                    "internalType": "address",
                    "name": "",
                    "type": "address"
                }
            ],
            "name": "userInfo",
            "outputs": [
                {
                    "internalType": "uint256",
                    "name": "amount",
                    "type": "uint256"
                },
                {
                    "internalType": "uint256",
                    "name": "rewardDebt",
                    "type": "uint256"
                },
                {
                    "internalType": "uint256",
                    "name": "unstakeTime",
                    "type": "uint256"
                }
            ],
            "stateMutability": "view",
            "type": "function"
        },
        {
            "inputs": [
                {
                    "internalType": "uint256",
                    "name": "_pid",
                    "type": "uint256"
                },
                {
                    "internalType": "uint256",
                    "name": "_amount",
                    "type": "uint256"
                }
            ],
            "name": "withdraw",
            "outputs": [],
            "stateMutability": "nonpayable",
            "type": "function"
        },
        {
            "inputs": [
                {
                    "internalType": "uint256",
                    "name": "_amount",
                    "type": "uint256"
                }
            ],
            "name": "withdrawRewardTokens",
            "outputs": [],
            "stateMutability": "nonpayable",
            "type": "function"
        }
    ],
    "bytecode": "60806040526000600255600160035560006008556000600955760a70c3c40a64e6c51999090b65f67d9240000000000000600a556000600b5534801561004457600080fd5b50604051611ce5380380611ce58339818101604052602081101561006757600080fd5b505160006100736100e2565b600080546001600160a01b0319166001600160a01b0383169081178255604051929350917f8be0079c531659141344cd1fd0a4f28419497f9722a3daafe3b4186f6b6457e0908290a350600180546001600160a01b0319166001600160a01b03929092169190911790556100e6565b3390565b611bf0806100f56000396000f3fe608060405234801561001057600080fd5b50600436106102275760003560e01c8063715018a6116101305780639e0af234116100b8578063d74069651161007c578063d740696514610617578063d7ed714e14610634578063e2bbb1581461063c578063f2fde38b1461065f578063f7c618c11461068557610227565b80639e0af2341461055a578063c25b905f14610577578063c9cc2e8e146105a3578063cb43b2dd146105c0578063d3442705146105dd57610227565b80638aa28550116100ff5780638aa28550146104b75780638aee8127146104bf5780638da5cb5b146104e55780638dbb1e3a146104ed57806393f1a40b1461051057610227565b8063715018a61461047b5780637cd07e471461048357806381fa561a146104a7578063838e9c76146104af57610227565b806323cf3118116101b35780635312ea8e116101825780635312ea8e14610406578063554c798a1461042357806362b9e0981461042b578063630b5ba11461044857806364482f791461045057610227565b806323cf311814610383578063441a3e70146103a95780634e362966146103cc57806351eb05a6146103e957610227565b806317caf6f1116101fa57806317caf6f1146102de57806317eba6db146102e65780631aed65531461032a5780631c4b774b146103325780631eaaa0451461034f57610227565b8063081e3eda1461022c5780631526fe27146102465780631653fd331461029357806316c621e0146102bf575b600080fd5b61023461068d565b60408051918252519081900360200190f35b6102636004803603602081101561025c57600080fd5b5035610693565b604080516001600160a01b0390951685526020850193909352838301919091526060830152519081900360800190f35b610234600480360360408110156102a957600080fd5b50803590602001356001600160a01b03166106d4565b6102dc600480360360208110156102d557600080fd5b503561084a565b005b610234610935565b6102dc600480360360c08110156102fc57600080fd5b506001600160a01b038135169060208101359060408101359060608101359060808101359060a0013561093b565b6102346109d5565b6102346004803603602081101561034857600080fd5b50356109db565b6102dc6004803603606081101561036557600080fd5b508035906001600160a01b0360208201351690604001351515610a08565b6102dc6004803603602081101561039957600080fd5b50356001600160a01b0316610c14565b6102dc600480360360408110156103bf57600080fd5b5080359060200135610c98565b6102dc600480360360208110156103e257600080fd5b5035610e56565b6102dc600480360360208110156103ff57600080fd5b5035610ebd565b6102dc6004803603602081101561041c57600080fd5b5035610fe7565b6102346110e5565b6102dc6004803603602081101561044157600080fd5b50356110eb565b6102dc611152565b6102dc6004803603606081101561046657600080fd5b50803590602081013590604001351515611175565b6102dc611250565b61048b6112fc565b604080516001600160a01b039092168252519081900360200190f35b61023461130b565b610234611311565b610234611317565b6102dc600480360360208110156104d557600080fd5b50356001600160a01b031661131c565b61048b6113a0565b6102346004803603604081101561050357600080fd5b50803590602001356113af565b61053c6004803603604081101561052657600080fd5b50803590602001356001600160a01b0316611415565b60408051938452602084019290925282820152519081900360600190f35b6102dc6004803603602081101561057057600080fd5b5035611441565b6102346004803603604081101561058d57600080fd5b506001600160a01b0381351690602001356114a8565b6102dc600480360360208110156105b957600080fd5b50356114d6565b6102dc600480360360208110156105d657600080fd5b503561153d565b610603600480360360208110156105f357600080fd5b50356001600160a01b03166115f3565b604080519115158252519081900360200190f35b6102dc6004803603602081101561062d57600080fd5b5035611608565b61023461166f565b6102dc6004803603604081101561065257600080fd5b5080359060200135611675565b6102dc6004803603602081101561067557600080fd5b50356001600160a01b031661182a565b61048b61192c565b60045490565b600481815481106106a057fe5b600091825260209091206004909102018054600182015460028301546003909301546001600160a01b039092169350919084565b600080600484815481106106e457fe5b600091825260208083208784526006825260408085206001600160a01b03898116875290845281862060049586029093016003810154815484516370a0823160e01b81523098810198909852935191985093969395939492909116926370a08231926024808301939192829003018186803b15801561076257600080fd5b505afa158015610776573d6000803e3d6000fd5b505050506040513d602081101561078c57600080fd5b50516002850154909150431180156107a357508015155b1561080f5760006107b88560020154436113af565b905060006107eb6008546107e588600101546107df6003548761193b90919063ffffffff16565b9061193b565b9061199b565b905061080a610803846107e58464e8d4a5100061193b565b8590611a02565b935050505b61083d836001015461083764e8d4a510006107e586886000015461193b90919063ffffffff16565b90611a5c565b9450505050505b92915050565b610852611ab9565b6001600160a01b03166108636113a0565b6001600160a01b0316146108ac576040805162461bcd60e51b81526020600482018190526024820152600080516020611b9b833981519152604482015290519081900360640190fd5b600154604080516323b872dd60e01b81523360048201523060248201526044810184905290516001600160a01b03909216916323b872dd916064808201926020929091908290030181600087803b15801561090657600080fd5b505af115801561091a573d6000803e3d6000fd5b505050506040513d602081101561093057600080fd5b505050565b60085481565b610943611ab9565b6001600160a01b03166109546113a0565b6001600160a01b03161461099d576040805162461bcd60e51b81526020600482018190526024820152600080516020611b9b833981519152604482015290519081900360640190fd5b600180546001600160a01b0319166001600160a01b039790971696909617909555600393909355600991909155600a55600255600b55565b60025481565b3360009081526007602052604081208054839081106109f657fe5b90600052602060002001549050919050565b610a10611ab9565b6001600160a01b0316610a216113a0565b6001600160a01b031614610a6a576040805162461bcd60e51b81526020600482018190526024820152600080516020611b9b833981519152604482015290519081900360640190fd5b6001600160a01b03821660009081526005602052604090205460ff1615610ad1576040805162461bcd60e51b8152602060048201526016602482015275131408151bdad95b88185b1c9958591e48185919195960521b604482015290519081900360640190fd5b8015610adf57610adf611152565b60006009544311610af257600954610af4565b435b600854909150610b049085611a02565b600855604080516080810182526001600160a01b0394851680825260208083019788528284019485526000606084018181526004805460018181018355828552965191027f8a35acfbc15ff81a39ae7d344fd709f28e8600b4aa8c65c6b64bfe7fe36bd19b8101805492909b166001600160a01b03199092169190911790995598517f8a35acfbc15ff81a39ae7d344fd709f28e8600b4aa8c65c6b64bfe7fe36bd19c89015594517f8a35acfbc15ff81a39ae7d344fd709f28e8600b4aa8c65c6b64bfe7fe36bd19d88015596517f8a35acfbc15ff81a39ae7d344fd709f28e8600b4aa8c65c6b64bfe7fe36bd19e90960195909555938252600590945292909220805460ff1916909117905550565b610c1c611ab9565b6001600160a01b0316610c2d6113a0565b6001600160a01b031614610c76576040805162461bcd60e51b81526020600482018190526024820152600080516020611b9b833981519152604482015290519081900360640190fd5b600c80546001600160a01b0319166001600160a01b0392909216919091179055565b600060048381548110610ca757fe5b600091825260208083208684526006825260408085203386529092529220805460049092029092019250831115610d1a576040805162461bcd60e51b81526020600482015260126024820152711dda5d1a191c985dce881b9bdd0819dbdbd960721b604482015290519081900360640190fd5b8060020154421115610e5057610d2f84610ebd565b6000610d5d826001015461083764e8d4a510006107e58760030154876000015461193b90919063ffffffff16565b9050610d6a338683611abd565b8154610d769085611a5c565b8083556003840154610d939164e8d4a51000916107e5919061193b565b600183015582546040805163a9059cbb60e01b81523360048201526024810187905290516001600160a01b039092169163a9059cbb916044808201926020929091908290030181600087803b158015610deb57600080fd5b505af1158015610dff573d6000803e3d6000fd5b505050506040513d6020811015610e1557600080fd5b5050604080518581529051869133917ff279e6a1f5e320cca91135676d9cb6e44ca8a08c0b88342bcdb1144f6511b5689181900360200190a3505b50505050565b610e5e611ab9565b6001600160a01b0316610e6f6113a0565b6001600160a01b031614610eb8576040805162461bcd60e51b81526020600482018190526024820152600080516020611b9b833981519152604482015290519081900360640190fd5b600a55565b600060048281548110610ecc57fe5b9060005260206000209060040201905080600201544311610eed5750610fe4565b8054604080516370a0823160e01b815230600482015290516000926001600160a01b0316916370a08231916024808301926020929190829003018186803b158015610f3757600080fd5b505afa158015610f4b573d6000803e3d6000fd5b505050506040513d6020811015610f6157600080fd5b5051905080610f77575043600290910155610fe4565b6000610f878360020154436113af565b90506000610fae6008546107e586600101546107df6003548761193b90919063ffffffff16565b9050610fd1610fc6846107e58464e8d4a5100061193b565b600386015490611a02565b6003850155505043600290920191909155505b50565b600060048281548110610ff657fe5b60009182526020808320858452600682526040808520338087529084528186208681556001810187905560049586029093018054835163a9059cbb60e01b81529687019290925260248601879052915191965091946001600160a01b039092169363a9059cbb936044808301949193928390030190829087803b15801561107c57600080fd5b505af1158015611090573d6000803e3d6000fd5b505050506040513d60208110156110a657600080fd5b505080546040805191825251849133917fbb757047c2b5f3974fe26b7c10f732e7bce710b0952a71082702781e62ae05959181900360200190a3505050565b60035481565b6110f3611ab9565b6001600160a01b03166111046113a0565b6001600160a01b03161461114d576040805162461bcd60e51b81526020600482018190526024820152600080516020611b9b833981519152604482015290519081900360640190fd5b600955565b60045460005b818110156111715761116981610ebd565b600101611158565b5050565b61117d611ab9565b6001600160a01b031661118e6113a0565b6001600160a01b0316146111d7576040805162461bcd60e51b81526020600482018190526024820152600080516020611b9b833981519152604482015290519081900360640190fd5b80156111e5576111e5611152565b6112228261121c600486815481106111f957fe5b906000526020600020906004020160010154600854611a5c90919063ffffffff16565b90611a02565b600881905550816004848154811061123657fe5b906000526020600020906004020160010181905550505050565b611258611ab9565b6001600160a01b03166112696113a0565b6001600160a01b0316146112b2576040805162461bcd60e51b81526020600482018190526024820152600080516020611b9b833981519152604482015290519081900360640190fd5b600080546040516001600160a01b03909116907f8be0079c531659141344cd1fd0a4f28419497f9722a3daafe3b4186f6b6457e0908390a3600080546001600160a01b0319169055565b600c546001600160a01b031681565b600a5481565b600b5481565b600a81565b611324611ab9565b6001600160a01b03166113356113a0565b6001600160a01b03161461137e576040805162461bcd60e51b81526020600482018190526024820152600080516020611b9b833981519152604482015290519081900360640190fd5b600180546001600160a01b0319166001600160a01b0392909216919091179055565b6000546001600160a01b031690565b600060025482116113d0576113c9600a6107df8486611a5c565b9050610844565b60025483106113e3576113c98284611a5c565b6113c96113fb60025484611a5c90919063ffffffff16565b61121c600a6107df87600254611a5c90919063ffffffff16565b600660209081526000928352604080842090915290825290208054600182015460029092015490919083565b611449611ab9565b6001600160a01b031661145a6113a0565b6001600160a01b0316146114a3576040805162461bcd60e51b81526020600482018190526024820152600080516020611b9b833981519152604482015290519081900360640190fd5b600255565b600760205281600052604060002081815481106114c157fe5b90600052602060002001600091509150505481565b6114de611ab9565b6001600160a01b03166114ef6113a0565b6001600160a01b031614611538576040805162461bcd60e51b81526020600482018190526024820152600080516020611b9b833981519152604482015290519081900360640190fd5b600b55565b611545611ab9565b6001600160a01b03166115566113a0565b6001600160a01b03161461159f576040805162461bcd60e51b81526020600482018190526024820152600080516020611b9b833981519152604482015290519081900360640190fd5b6001546040805163a9059cbb60e01b81523360048201526024810184905290516001600160a01b039092169163a9059cbb916044808201926020929091908290030181600087803b15801561090657600080fd5b60056020526000908152604090205460ff1681565b611610611ab9565b6001600160a01b03166116216113a0565b6001600160a01b03161461166a576040805162461bcd60e51b81526020600482018190526024820152600080516020611b9b833981519152604482015290519081900360640190fd5b600355565b60095481565b600081116116b45760405162461bcd60e51b8152600401808060200182810382526022815260200180611b586022913960400191505060405180910390fd5b6000600483815481106116c357fe5b600091825260208083208684526006825260408085203386529092529220600490910290910191506116f484610ebd565b6000611722826001015461083764e8d4a510006107e58760030154876000015461193b90919063ffffffff16565b905061172f338683611abd565b600b544201600283015581546117459085611a02565b80835560038401546117629164e8d4a51000916107e5919061193b565b60018301558254604080516323b872dd60e01b81523360048201523060248201526044810187905290516001600160a01b03909216916323b872dd916064808201926020929091908290030181600087803b1580156117c057600080fd5b505af11580156117d4573d6000803e3d6000fd5b505050506040513d60208110156117ea57600080fd5b5050604080518581529051869133917f90890809c654f11d6e72a28fa60149770a0d11ec6c92319d6ceb2bb0a4ea1a159181900360200190a35050505050565b611832611ab9565b6001600160a01b03166118436113a0565b6001600160a01b03161461188c576040805162461bcd60e51b81526020600482018190526024820152600080516020611b9b833981519152604482015290519081900360640190fd5b6001600160a01b0381166118d15760405162461bcd60e51b8152600401808060200182810382526026815260200180611b326026913960400191505060405180910390fd5b600080546040516001600160a01b03808516939216917f8be0079c531659141344cd1fd0a4f28419497f9722a3daafe3b4186f6b6457e091a3600080546001600160a01b0319166001600160a01b0392909216919091179055565b6001546001600160a01b031681565b60008261194a57506000610844565b8282028284828161195757fe5b04146119945760405162461bcd60e51b8152600401808060200182810382526021815260200180611b7a6021913960400191505060405180910390fd5b9392505050565b60008082116119f1576040805162461bcd60e51b815260206004820152601a60248201527f536166654d6174683a206469766973696f6e206279207a65726f000000000000604482015290519081900360640190fd5b8183816119fa57fe5b049392505050565b600082820183811015611994576040805162461bcd60e51b815260206004820152601b60248201527f536166654d6174683a206164646974696f6e206f766572666c6f770000000000604482015290519081900360640190fd5b600082821115611ab3576040805162461bcd60e51b815260206004820152601e60248201527f536166654d6174683a207375627472616374696f6e206f766572666c6f770000604482015290519081900360640190fd5b50900390565b3390565b6001600160a01b0383166000908152600760205260409020805482919084908110611ae457fe5b90600052602060002001540160076000856001600160a01b03166001600160a01b031681526020019081526020016000208381548110611b2057fe5b60009182526020909120015550505056fe4f776e61626c653a206e6577206f776e657220697320746865207a65726f20616464726573734d757374206465706f73697420616d6f756e74206d6f7265207468616e205a45524f536166654d6174683a206d756c7469706c69636174696f6e206f766572666c6f774f776e61626c653a2063616c6c6572206973206e6f7420746865206f776e6572a26469706673582212204cfa09a77c10d71eb2a42f7f41d93bdaac463df2e09005337221c884af5bddec64736f6c634300060c0033",
    "sourcePath": "/home/muneeb/work/Bird Money/bird-farm-contracts/contracts/MasterChef.sol",
    "compiler": {
        "name": "solc",
        "version": "0.6.12+commit.27d51765"
    },
    "functionHashes": {
        "BONUS_MULTIPLIER()": "8aa28550",
        "add(uint256,address,bool)": "1eaaa045",
        "bonusEndBlock()": "1aed6553",
        "deposit(uint256,uint256)": "e2bbb158",
        "depositRewardTokens(uint256)": "16c621e0",
        "emergencyWithdraw(uint256)": "5312ea8e",
        "endRewardBlock()": "81fa561a",
        "getMultiplier(uint256,uint256)": "8dbb1e3a",
        "getReward(uint256)": "1c4b774b",
        "massUpdatePools()": "630b5ba1",
        "migrator()": "7cd07e47",
        "owner()": "8da5cb5b",
        "pendingRewardOf(address,uint256)": "c25b905f",
        "pendingRewardToken(uint256,address)": "1653fd33",
        "poolInfo(uint256)": "1526fe27",
        "poolLength()": "081e3eda",
        "renounceOwnership()": "715018a6",
        "rewardToken()": "f7c618c1",
        "rewardTokenPerBlock()": "554c798a",
        "set(uint256,uint256,bool)": "64482f79",
        "setAll(address,uint256,uint256,uint256,uint256,uint256)": "17eba6db",
        "setBonusEndBlock(uint256)": "9e0af234",
        "setEndRewardBlock(uint256)": "4e362966",
        "setMigrator(address)": "23cf3118",
        "setRewardToken(address)": "8aee8127",
        "setRewardTokenPerBlock(uint256)": "d7406965",
        "setStartRewardBlock(uint256)": "62b9e098",
        "setUnstakeFrozenTime(uint256)": "c9cc2e8e",
        "startRewardBlock()": "d7ed714e",
        "totalAllocPoint()": "17caf6f1",
        "transferOwnership(address)": "f2fde38b",
        "uniqueTokenInPool(address)": "d3442705",
        "unstakeFrozenTime()": "838e9c76",
        "updatePool(uint256)": "51eb05a6",
        "userInfo(uint256,address)": "93f1a40b",
        "withdraw(uint256,uint256)": "441a3e70",
        "withdrawRewardTokens(uint256)": "cb43b2dd"
    },
    "gasEstimates": {
        "creation": {
            "codeDepositCost": "1430400",
            "executionCost": "infinite",
            "totalCost": "infinite"
        },
        "external": {
            "BONUS_MULTIPLIER()": "243",
            "add(uint256,address,bool)": "infinite",
            "bonusEndBlock()": "1088",
            "deposit(uint256,uint256)": "infinite",
            "depositRewardTokens(uint256)": "infinite",
            "emergencyWithdraw(uint256)": "infinite",
            "endRewardBlock()": "1088",
            "getMultiplier(uint256,uint256)": "infinite",
            "getReward(uint256)": "2113",
            "massUpdatePools()": "infinite",
            "migrator()": "1105",
            "owner()": "1126",
            "pendingRewardOf(address,uint256)": "2098",
            "pendingRewardToken(uint256,address)": "infinite",
            "poolInfo(uint256)": "4561",
            "poolLength()": "1045",
            "renounceOwnership()": "infinite",
            "rewardToken()": "1169",
            "rewardTokenPerBlock()": "1065",
            "set(uint256,uint256,bool)": "infinite",
            "setAll(address,uint256,uint256,uint256,uint256,uint256)": "infinite",
            "setBonusEndBlock(uint256)": "infinite",
            "setEndRewardBlock(uint256)": "infinite",
            "setMigrator(address)": "infinite",
            "setRewardToken(address)": "infinite",
            "setRewardTokenPerBlock(uint256)": "infinite",
            "setStartRewardBlock(uint256)": "infinite",
            "setUnstakeFrozenTime(uint256)": "infinite",
            "startRewardBlock()": "1064",
            "totalAllocPoint()": "1044",
            "transferOwnership(address)": "infinite",
            "uniqueTokenInPool(address)": "1269",
            "unstakeFrozenTime()": "1110",
            "updatePool(uint256)": "infinite",
            "userInfo(uint256,address)": "3016",
            "withdraw(uint256,uint256)": "infinite",
            "withdrawRewardTokens(uint256)": "infinite"
        },
        "internal": {
            "rewardTokenTransfer(address,uint256)": "infinite",
            "savePendingReward(address,uint256,uint256)": "22809"
        }
    }
}