{
    "contractName": "MasterChef",
    "abi": [
        {
            "inputs": [
                {
                    "internalType": "contract IERC20",
                    "name": "_rewardToken",
                    "type": "address"
                }
            ],
            "stateMutability": "nonpayable",
            "type": "constructor"
        },
        {
            "anonymous": false,
            "inputs": [
                {
                    "indexed": true,
                    "internalType": "address",
                    "name": "user",
                    "type": "address"
                },
                {
                    "indexed": true,
                    "internalType": "uint256",
                    "name": "pid",
                    "type": "uint256"
                },
                {
                    "indexed": false,
                    "internalType": "uint256",
                    "name": "amount",
                    "type": "uint256"
                }
            ],
            "name": "Deposit",
            "type": "event"
        },
        {
            "anonymous": false,
            "inputs": [
                {
                    "indexed": true,
                    "internalType": "address",
                    "name": "user",
                    "type": "address"
                },
                {
                    "indexed": true,
                    "internalType": "uint256",
                    "name": "pid",
                    "type": "uint256"
                },
                {
                    "indexed": false,
                    "internalType": "uint256",
                    "name": "amount",
                    "type": "uint256"
                }
            ],
            "name": "EmergencyWithdraw",
            "type": "event"
        },
        {
            "anonymous": false,
            "inputs": [
                {
                    "indexed": true,
                    "internalType": "address",
                    "name": "previousOwner",
                    "type": "address"
                },
                {
                    "indexed": true,
                    "internalType": "address",
                    "name": "newOwner",
                    "type": "address"
                }
            ],
            "name": "OwnershipTransferred",
            "type": "event"
        },
        {
            "anonymous": false,
            "inputs": [
                {
                    "indexed": true,
                    "internalType": "address",
                    "name": "user",
                    "type": "address"
                },
                {
                    "indexed": true,
                    "internalType": "uint256",
                    "name": "pid",
                    "type": "uint256"
                },
                {
                    "indexed": false,
                    "internalType": "uint256",
                    "name": "amount",
                    "type": "uint256"
                }
            ],
            "name": "Withdraw",
            "type": "event"
        },
        {
            "inputs": [],
            "name": "BONUS_MULTIPLIER",
            "outputs": [
                {
                    "internalType": "uint256",
                    "name": "",
                    "type": "uint256"
                }
            ],
            "stateMutability": "view",
            "type": "function"
        },
        {
            "inputs": [],
            "name": "MAX_UINT",
            "outputs": [
                {
                    "internalType": "uint256",
                    "name": "",
                    "type": "uint256"
                }
            ],
            "stateMutability": "view",
            "type": "function"
        },
        {
            "inputs": [
                {
                    "internalType": "uint256",
                    "name": "_allocPoint",
                    "type": "uint256"
                },
                {
                    "internalType": "contract IERC20",
                    "name": "_lpToken",
                    "type": "address"
                },
                {
                    "internalType": "bool",
                    "name": "_withUpdate",
                    "type": "bool"
                }
            ],
            "name": "add",
            "outputs": [],
            "stateMutability": "nonpayable",
            "type": "function"
        },
        {
            "inputs": [],
            "name": "bonusEndBlock",
            "outputs": [
                {
                    "internalType": "uint256",
                    "name": "",
                    "type": "uint256"
                }
            ],
            "stateMutability": "view",
            "type": "function"
        },
        {
            "inputs": [
                {
                    "internalType": "uint256",
                    "name": "_pid",
                    "type": "uint256"
                },
                {
                    "internalType": "uint256",
                    "name": "_amount",
                    "type": "uint256"
                }
            ],
            "name": "deposit",
            "outputs": [],
            "stateMutability": "nonpayable",
            "type": "function"
        },
        {
            "inputs": [
                {
                    "internalType": "uint256",
                    "name": "_amount",
                    "type": "uint256"
                }
            ],
            "name": "depositRewardTokens",
            "outputs": [],
            "stateMutability": "nonpayable",
            "type": "function"
        },
        {
            "inputs": [
                {
                    "internalType": "uint256",
                    "name": "_pid",
                    "type": "uint256"
                }
            ],
            "name": "emergencyWithdraw",
            "outputs": [],
            "stateMutability": "nonpayable",
            "type": "function"
        },
        {
            "inputs": [],
            "name": "endRewardBlock",
            "outputs": [
                {
                    "internalType": "uint256",
                    "name": "",
                    "type": "uint256"
                }
            ],
            "stateMutability": "view",
            "type": "function"
        },
        {
            "inputs": [
                {
                    "internalType": "uint256",
                    "name": "_from",
                    "type": "uint256"
                },
                {
                    "internalType": "uint256",
                    "name": "_to",
                    "type": "uint256"
                }
            ],
            "name": "getMultiplier",
            "outputs": [
                {
                    "internalType": "uint256",
                    "name": "",
                    "type": "uint256"
                }
            ],
            "stateMutability": "view",
            "type": "function"
        },
        {
            "inputs": [
                {
                    "internalType": "uint256",
                    "name": "_pid",
                    "type": "uint256"
                }
            ],
            "name": "getReward",
            "outputs": [
                {
                    "internalType": "uint256",
                    "name": "",
                    "type": "uint256"
                }
            ],
            "stateMutability": "view",
            "type": "function"
        },
        {
            "inputs": [
                {
                    "internalType": "uint256",
                    "name": "_pid",
                    "type": "uint256"
                }
            ],
            "name": "harvestPendingReward",
            "outputs": [],
            "stateMutability": "nonpayable",
            "type": "function"
        },
        {
            "inputs": [],
            "name": "massUpdatePools",
            "outputs": [],
            "stateMutability": "nonpayable",
            "type": "function"
        },
        {
            "inputs": [],
            "name": "migrator",
            "outputs": [
                {
                    "internalType": "contract IMigratorChef",
                    "name": "",
                    "type": "address"
                }
            ],
            "stateMutability": "view",
            "type": "function"
        },
        {
            "inputs": [],
            "name": "owner",
            "outputs": [
                {
                    "internalType": "address",
                    "name": "",
                    "type": "address"
                }
            ],
            "stateMutability": "view",
            "type": "function"
        },
        {
            "inputs": [
                {
                    "internalType": "address",
                    "name": "",
                    "type": "address"
                },
                {
                    "internalType": "uint256",
                    "name": "",
                    "type": "uint256"
                }
            ],
            "name": "pendingRewardOf",
            "outputs": [
                {
                    "internalType": "uint256",
                    "name": "",
                    "type": "uint256"
                }
            ],
            "stateMutability": "view",
            "type": "function"
        },
        {
            "inputs": [
                {
                    "internalType": "uint256",
                    "name": "_pid",
                    "type": "uint256"
                },
                {
                    "internalType": "address",
                    "name": "_user",
                    "type": "address"
                }
            ],
            "name": "pendingRewardToken",
            "outputs": [
                {
                    "internalType": "uint256",
                    "name": "",
                    "type": "uint256"
                }
            ],
            "stateMutability": "view",
            "type": "function"
        },
        {
            "inputs": [
                {
                    "internalType": "uint256",
                    "name": "",
                    "type": "uint256"
                }
            ],
            "name": "poolInfo",
            "outputs": [
                {
                    "internalType": "contract IERC20",
                    "name": "lpToken",
                    "type": "address"
                },
                {
                    "internalType": "uint256",
                    "name": "allocPoint",
                    "type": "uint256"
                },
                {
                    "internalType": "uint256",
                    "name": "lastRewardBlock",
                    "type": "uint256"
                },
                {
                    "internalType": "uint256",
                    "name": "accRewardTokenPerShare",
                    "type": "uint256"
                }
            ],
            "stateMutability": "view",
            "type": "function"
        },
        {
            "inputs": [],
            "name": "poolLength",
            "outputs": [
                {
                    "internalType": "uint256",
                    "name": "",
                    "type": "uint256"
                }
            ],
            "stateMutability": "view",
            "type": "function"
        },
        {
            "inputs": [],
            "name": "renounceOwnership",
            "outputs": [],
            "stateMutability": "nonpayable",
            "type": "function"
        },
        {
            "inputs": [],
            "name": "rewardToken",
            "outputs": [
                {
                    "internalType": "contract IERC20",
                    "name": "",
                    "type": "address"
                }
            ],
            "stateMutability": "view",
            "type": "function"
        },
        {
            "inputs": [],
            "name": "rewardTokenPerBlock",
            "outputs": [
                {
                    "internalType": "uint256",
                    "name": "",
                    "type": "uint256"
                }
            ],
            "stateMutability": "view",
            "type": "function"
        },
        {
            "inputs": [
                {
                    "internalType": "uint256",
                    "name": "_pid",
                    "type": "uint256"
                },
                {
                    "internalType": "uint256",
                    "name": "_allocPoint",
                    "type": "uint256"
                },
                {
                    "internalType": "bool",
                    "name": "_withUpdate",
                    "type": "bool"
                }
            ],
            "name": "set",
            "outputs": [],
            "stateMutability": "nonpayable",
            "type": "function"
        },
        {
            "inputs": [
                {
                    "internalType": "contract IERC20",
                    "name": "_rewardToken",
                    "type": "address"
                },
                {
                    "internalType": "uint256",
                    "name": "_rewardTokenPerBlock",
                    "type": "uint256"
                },
                {
                    "internalType": "uint256",
                    "name": "_startRewardBlock",
                    "type": "uint256"
                },
                {
                    "internalType": "uint256",
                    "name": "_endRewardBlock",
                    "type": "uint256"
                },
                {
                    "internalType": "uint256",
                    "name": "_bonusEndBlock",
                    "type": "uint256"
                },
                {
                    "internalType": "uint256",
                    "name": "_unstakeFrozenTime",
                    "type": "uint256"
                }
            ],
            "name": "setAll",
            "outputs": [],
            "stateMutability": "nonpayable",
            "type": "function"
        },
        {
            "inputs": [
                {
                    "internalType": "uint256",
                    "name": "_bonusEndBlock",
                    "type": "uint256"
                }
            ],
            "name": "setBonusEndBlock",
            "outputs": [],
            "stateMutability": "nonpayable",
            "type": "function"
        },
        {
            "inputs": [
                {
                    "internalType": "uint256",
                    "name": "_endRewardBlock",
                    "type": "uint256"
                }
            ],
            "name": "setEndRewardBlock",
            "outputs": [],
            "stateMutability": "nonpayable",
            "type": "function"
        },
        {
            "inputs": [
                {
                    "internalType": "contract IMigratorChef",
                    "name": "_migrator",
                    "type": "address"
                }
            ],
            "name": "setMigrator",
            "outputs": [],
            "stateMutability": "nonpayable",
            "type": "function"
        },
        {
            "inputs": [
                {
                    "internalType": "contract IERC20",
                    "name": "_rewardToken",
                    "type": "address"
                }
            ],
            "name": "setRewardToken",
            "outputs": [],
            "stateMutability": "nonpayable",
            "type": "function"
        },
        {
            "inputs": [
                {
                    "internalType": "uint256",
                    "name": "_rewardTokenPerBlock",
                    "type": "uint256"
                }
            ],
            "name": "setRewardTokenPerBlock",
            "outputs": [],
            "stateMutability": "nonpayable",
            "type": "function"
        },
        {
            "inputs": [
                {
                    "internalType": "uint256",
                    "name": "_startRewardBlock",
                    "type": "uint256"
                }
            ],
            "name": "setStartRewardBlock",
            "outputs": [],
            "stateMutability": "nonpayable",
            "type": "function"
        },
        {
            "inputs": [
                {
                    "internalType": "uint256",
                    "name": "_unstakeFrozenTime",
                    "type": "uint256"
                }
            ],
            "name": "setUnstakeFrozenTime",
            "outputs": [],
            "stateMutability": "nonpayable",
            "type": "function"
        },
        {
            "inputs": [],
            "name": "startRewardBlock",
            "outputs": [
                {
                    "internalType": "uint256",
                    "name": "",
                    "type": "uint256"
                }
            ],
            "stateMutability": "view",
            "type": "function"
        },
        {
            "inputs": [],
            "name": "totalAllocPoint",
            "outputs": [
                {
                    "internalType": "uint256",
                    "name": "",
                    "type": "uint256"
                }
            ],
            "stateMutability": "view",
            "type": "function"
        },
        {
            "inputs": [
                {
                    "internalType": "address",
                    "name": "newOwner",
                    "type": "address"
                }
            ],
            "name": "transferOwnership",
            "outputs": [],
            "stateMutability": "nonpayable",
            "type": "function"
        },
        {
            "inputs": [
                {
                    "internalType": "contract IERC20",
                    "name": "",
                    "type": "address"
                }
            ],
            "name": "uniqueTokenInPool",
            "outputs": [
                {
                    "internalType": "bool",
                    "name": "",
                    "type": "bool"
                }
            ],
            "stateMutability": "view",
            "type": "function"
        },
        {
            "inputs": [],
            "name": "unstakeFrozenTime",
            "outputs": [
                {
                    "internalType": "uint256",
                    "name": "",
                    "type": "uint256"
                }
            ],
            "stateMutability": "view",
            "type": "function"
        },
        {
            "inputs": [
                {
                    "internalType": "uint256",
                    "name": "_pid",
                    "type": "uint256"
                }
            ],
            "name": "updatePool",
            "outputs": [],
            "stateMutability": "nonpayable",
            "type": "function"
        },
        {
            "inputs": [
                {
                    "internalType": "uint256",
                    "name": "",
                    "type": "uint256"
                },
                {
                    "internalType": "address",
                    "name": "",
                    "type": "address"
                }
            ],
            "name": "userInfo",
            "outputs": [
                {
                    "internalType": "uint256",
                    "name": "amount",
                    "type": "uint256"
                },
                {
                    "internalType": "uint256",
                    "name": "rewardDebt",
                    "type": "uint256"
                },
                {
                    "internalType": "uint256",
                    "name": "unstakeTime",
                    "type": "uint256"
                }
            ],
            "stateMutability": "view",
            "type": "function"
        },
        {
            "inputs": [
                {
                    "internalType": "uint256",
                    "name": "_pid",
                    "type": "uint256"
                },
                {
                    "internalType": "uint256",
                    "name": "_amount",
                    "type": "uint256"
                }
            ],
            "name": "withdraw",
            "outputs": [],
            "stateMutability": "nonpayable",
            "type": "function"
        },
        {
            "inputs": [
                {
                    "internalType": "uint256",
                    "name": "_amount",
                    "type": "uint256"
                }
            ],
            "name": "withdrawRewardTokens",
            "outputs": [],
            "stateMutability": "nonpayable",
            "type": "function"
        }
    ],
    "bytecode": "608060405260006001556000600255600019600355606460045560006006556000600b5534801561002f57600080fd5b50604051611dac380380611dac8339818101604052602081101561005257600080fd5b5051600061005e6100cd565b600080546001600160a01b0319166001600160a01b0383169081178255604051929350917f8be0079c531659141344cd1fd0a4f28419497f9722a3daafe3b4186f6b6457e0908290a350600580546001600160a01b0319166001600160a01b03929092169190911790556100d1565b3390565b611ccc806100e06000396000f3fe608060405234801561001057600080fd5b506004361061023d5760003560e01c8063715018a61161013b578063c25b905f116100b8578063d7ed714e1161007c578063d7ed714e14610667578063e2bbb1581461066f578063e5b5019a14610692578063f2fde38b1461069a578063f7c618c1146106c05761023d565b8063c25b905f146105aa578063c9cc2e8e146105d6578063cb43b2dd146105f3578063d344270514610610578063d74069651461064a5761023d565b80638aee8127116100ff5780638aee8127146104f25780638da5cb5b146105185780638dbb1e3a1461052057806393f1a40b146105435780639e0af2341461058d5761023d565b8063715018a6146104ae5780637cd07e47146104b657806381fa561a146104da578063838e9c76146104e25780638aa28550146104ea5761023d565b806323cf3118116101c95780635312ea8e1161018d5780635312ea8e14610439578063554c798a1461045657806362b9e0981461045e578063630b5ba11461047b57806364482f79146104835761023d565b806323cf31181461039957806340303815146103bf578063441a3e70146103dc5780634e362966146103ff57806351eb05a61461041c5761023d565b806317caf6f11161021057806317caf6f1146102f457806317eba6db146102fc5780631aed6553146103405780631c4b774b146103485780631eaaa045146103655761023d565b8063081e3eda146102425780631526fe271461025c5780631653fd33146102a957806316c621e0146102d5575b600080fd5b61024a6106c8565b60408051918252519081900360200190f35b6102796004803603602081101561027257600080fd5b50356106ce565b604080516001600160a01b0390951685526020850193909352838301919091526060830152519081900360800190f35b61024a600480360360408110156102bf57600080fd5b50803590602001356001600160a01b031661070f565b6102f2600480360360208110156102eb57600080fd5b5035610891565b005b61024a61097c565b6102f2600480360360c081101561031257600080fd5b506001600160a01b038135169060208101359060408101359060608101359060808101359060a00135610982565b61024a610a1c565b61024a6004803603602081101561035e57600080fd5b5035610a22565b6102f26004803603606081101561037b57600080fd5b508035906001600160a01b0360208201351690604001351515610a3f565b6102f2600480360360208110156103af57600080fd5b50356001600160a01b0316610c49565b6102f2600480360360208110156103d557600080fd5b5035610ccd565b6102f2600480360360408110156103f257600080fd5b5080359060200135610d83565b6102f26004803603602081101561041557600080fd5b5035610f41565b6102f26004803603602081101561043257600080fd5b5035610fa8565b6102f26004803603602081101561044f57600080fd5b50356110d2565b61024a6111d0565b6102f26004803603602081101561047457600080fd5b50356111d6565b6102f261123d565b6102f26004803603606081101561049957600080fd5b50803590602081013590604001351515611260565b6102f261133b565b6104be6113e7565b604080516001600160a01b039092168252519081900360200190f35b61024a6113f6565b61024a6113fc565b61024a611402565b6102f26004803603602081101561050857600080fd5b50356001600160a01b0316611407565b6104be61148b565b61024a6004803603604081101561053657600080fd5b508035906020013561149a565b61056f6004803603604081101561055957600080fd5b50803590602001356001600160a01b0316611500565b60408051938452602084019290925282820152519081900360600190f35b6102f2600480360360208110156105a357600080fd5b503561152c565b61024a600480360360408110156105c057600080fd5b506001600160a01b038135169060200135611593565b6102f2600480360360208110156105ec57600080fd5b50356115b0565b6102f26004803603602081101561060957600080fd5b5035611617565b6106366004803603602081101561062657600080fd5b50356001600160a01b03166116cd565b604080519115158252519081900360200190f35b6102f26004803603602081101561066057600080fd5b50356116e2565b61024a611749565b6102f26004803603604081101561068557600080fd5b508035906020013561174f565b61024a611904565b6102f2600480360360208110156106b057600080fd5b50356001600160a01b031661190a565b6104be611a0c565b60075490565b600781815481106106db57fe5b600091825260209091206004909102018054600182015460028301546003909301546001600160a01b039092169350919084565b6000806007848154811061071f57fe5b600091825260208083208784526009825260408085206001600160a01b03898116875290845281862060049586029093016003810154815484516370a0823160e01b81523098810198909852935191985093969395939492909116926370a08231926024808301939192829003018186803b15801561079d57600080fd5b505afa1580156107b1573d6000803e3d6000fd5b505050506040513d60208110156107c757600080fd5b5051905080158015906107dc57506002544310155b80156107ea57506003544311155b156108565760006107ff85600201544361149a565b90506000610832600b5461082c886001015461082660045487611a1b90919063ffffffff16565b90611a1b565b90611a7b565b905061085161084a8461082c8464e8d4a51000611a1b565b8590611ae2565b935050505b610884836001015461087e64e8d4a5100061082c868860000154611a1b90919063ffffffff16565b90611b3c565b9450505050505b92915050565b610899611b99565b6001600160a01b03166108aa61148b565b6001600160a01b0316146108f3576040805162461bcd60e51b81526020600482018190526024820152600080516020611c77833981519152604482015290519081900360640190fd5b600554604080516323b872dd60e01b81523360048201523060248201526044810184905290516001600160a01b03909216916323b872dd916064808201926020929091908290030181600087803b15801561094d57600080fd5b505af1158015610961573d6000803e3d6000fd5b505050506040513d602081101561097757600080fd5b505050565b600b5481565b61098a611b99565b6001600160a01b031661099b61148b565b6001600160a01b0316146109e4576040805162461bcd60e51b81526020600482018190526024820152600080516020611c77833981519152604482015290519081900360640190fd5b600580546001600160a01b0319166001600160a01b039790971696909617909555600493909355600291909155600355600655600155565b60065481565b336000908152600a60209081526040808320938352929052205490565b610a47611b99565b6001600160a01b0316610a5861148b565b6001600160a01b031614610aa1576040805162461bcd60e51b81526020600482018190526024820152600080516020611c77833981519152604482015290519081900360640190fd5b6001600160a01b03821660009081526008602052604090205460ff1615610b08576040805162461bcd60e51b8152602060048201526016602482015275131408151bdad95b88185b1c9958591e48185919195960521b604482015290519081900360640190fd5b8015610b1657610b1661123d565b60006002544311610b2957600254610b2b565b435b600b54909150610b3b9085611ae2565b600b55604080516080810182526001600160a01b039485168082526020808301978852828401948552600060608401818152600780546001808201835591845295517fa66cc928b5edb82af9bd49922954155ab7b0942694bea4ce44661d9a8736c688600490970296870180546001600160a01b03191691909b161790995598517fa66cc928b5edb82af9bd49922954155ab7b0942694bea4ce44661d9a8736c68985015594517fa66cc928b5edb82af9bd49922954155ab7b0942694bea4ce44661d9a8736c68a84015596517fa66cc928b5edb82af9bd49922954155ab7b0942694bea4ce44661d9a8736c68b909201919091558252600890945292909220805460ff1916909117905550565b610c51611b99565b6001600160a01b0316610c6261148b565b6001600160a01b031614610cab576040805162461bcd60e51b81526020600482018190526024820152600080516020611c77833981519152604482015290519081900360640190fd5b600c80546001600160a01b0319166001600160a01b0392909216919091179055565b6002544310158015610ce157506003544311155b610d1c5760405162461bcd60e51b8152600401808060200182810382526043815260200180611c136043913960600191505060405180910390fd5b600554336000818152600a60209081526040808320868452825280832054815163a9059cbb60e01b815260048101959095526024850152516001600160a01b039094169363a9059cbb93604480820194918390030190829087803b15801561094d57600080fd5b600060078381548110610d9257fe5b600091825260208083208684526009825260408085203386529092529220805460049092029092019250831115610e05576040805162461bcd60e51b81526020600482015260126024820152711dda5d1a191c985dce881b9bdd0819dbdbd960721b604482015290519081900360640190fd5b8060020154421115610f3b57610e1a84610fa8565b6000610e48826001015461087e64e8d4a5100061082c87600301548760000154611a1b90919063ffffffff16565b9050610e55338683611b9d565b8154610e619085611b3c565b8083556003840154610e7e9164e8d4a510009161082c9190611a1b565b600183015582546040805163a9059cbb60e01b81523360048201526024810187905290516001600160a01b039092169163a9059cbb916044808201926020929091908290030181600087803b158015610ed657600080fd5b505af1158015610eea573d6000803e3d6000fd5b505050506040513d6020811015610f0057600080fd5b5050604080518581529051869133917ff279e6a1f5e320cca91135676d9cb6e44ca8a08c0b88342bcdb1144f6511b5689181900360200190a3505b50505050565b610f49611b99565b6001600160a01b0316610f5a61148b565b6001600160a01b031614610fa3576040805162461bcd60e51b81526020600482018190526024820152600080516020611c77833981519152604482015290519081900360640190fd5b600355565b600060078281548110610fb757fe5b9060005260206000209060040201905080600201544311610fd857506110cf565b8054604080516370a0823160e01b815230600482015290516000926001600160a01b0316916370a08231916024808301926020929190829003018186803b15801561102257600080fd5b505afa158015611036573d6000803e3d6000fd5b505050506040513d602081101561104c57600080fd5b50519050806110625750436002909101556110cf565b600061107283600201544361149a565b905060006110a2600b5461082c64e8d4a51000610826886001015461082660045489611a1b90919063ffffffff16565b90506110bc6110b18285611a7b565b600386015490611ae2565b6003850155505043600290920191909155505b50565b6000600782815481106110e157fe5b60009182526020808320858452600982526040808520338087529084528186208681556001810187905560049586029093018054835163a9059cbb60e01b81529687019290925260248601879052915191965091946001600160a01b039092169363a9059cbb936044808301949193928390030190829087803b15801561116757600080fd5b505af115801561117b573d6000803e3d6000fd5b505050506040513d602081101561119157600080fd5b505080546040805191825251849133917fbb757047c2b5f3974fe26b7c10f732e7bce710b0952a71082702781e62ae05959181900360200190a3505050565b60045481565b6111de611b99565b6001600160a01b03166111ef61148b565b6001600160a01b031614611238576040805162461bcd60e51b81526020600482018190526024820152600080516020611c77833981519152604482015290519081900360640190fd5b600255565b60075460005b8181101561125c5761125481610fa8565b600101611243565b5050565b611268611b99565b6001600160a01b031661127961148b565b6001600160a01b0316146112c2576040805162461bcd60e51b81526020600482018190526024820152600080516020611c77833981519152604482015290519081900360640190fd5b80156112d0576112d061123d565b61130d82611307600786815481106112e457fe5b906000526020600020906004020160010154600b54611b3c90919063ffffffff16565b90611ae2565b600b81905550816007848154811061132157fe5b906000526020600020906004020160010181905550505050565b611343611b99565b6001600160a01b031661135461148b565b6001600160a01b03161461139d576040805162461bcd60e51b81526020600482018190526024820152600080516020611c77833981519152604482015290519081900360640190fd5b600080546040516001600160a01b03909116907f8be0079c531659141344cd1fd0a4f28419497f9722a3daafe3b4186f6b6457e0908390a3600080546001600160a01b0319169055565b600c546001600160a01b031681565b60035481565b60015481565b600a81565b61140f611b99565b6001600160a01b031661142061148b565b6001600160a01b031614611469576040805162461bcd60e51b81526020600482018190526024820152600080516020611c77833981519152604482015290519081900360640190fd5b600580546001600160a01b0319166001600160a01b0392909216919091179055565b6000546001600160a01b031690565b600060065482116114bb576114b4600a6108268486611b3c565b905061088b565b60065483106114ce576114b48284611b3c565b6114b46114e660065484611b3c90919063ffffffff16565b611307600a61082687600654611b3c90919063ffffffff16565b600960209081526000928352604080842090915290825290208054600182015460029092015490919083565b611534611b99565b6001600160a01b031661154561148b565b6001600160a01b03161461158e576040805162461bcd60e51b81526020600482018190526024820152600080516020611c77833981519152604482015290519081900360640190fd5b600655565b600a60209081526000928352604080842090915290825290205481565b6115b8611b99565b6001600160a01b03166115c961148b565b6001600160a01b031614611612576040805162461bcd60e51b81526020600482018190526024820152600080516020611c77833981519152604482015290519081900360640190fd5b600155565b61161f611b99565b6001600160a01b031661163061148b565b6001600160a01b031614611679576040805162461bcd60e51b81526020600482018190526024820152600080516020611c77833981519152604482015290519081900360640190fd5b6005546040805163a9059cbb60e01b81523360048201526024810184905290516001600160a01b039092169163a9059cbb916044808201926020929091908290030181600087803b15801561094d57600080fd5b60086020526000908152604090205460ff1681565b6116ea611b99565b6001600160a01b03166116fb61148b565b6001600160a01b031614611744576040805162461bcd60e51b81526020600482018190526024820152600080516020611c77833981519152604482015290519081900360640190fd5b600455565b60025481565b6000811161178e5760405162461bcd60e51b8152600401808060200182810382526022815260200180611bf16022913960400191505060405180910390fd5b60006007838154811061179d57fe5b600091825260208083208684526009825260408085203386529092529220600490910290910191506117ce84610fa8565b60006117fc826001015461087e64e8d4a5100061082c87600301548760000154611a1b90919063ffffffff16565b9050611809338683611b9d565b60015442016002830155815461181f9085611ae2565b808355600384015461183c9164e8d4a510009161082c9190611a1b565b60018301558254604080516323b872dd60e01b81523360048201523060248201526044810187905290516001600160a01b03909216916323b872dd916064808201926020929091908290030181600087803b15801561189a57600080fd5b505af11580156118ae573d6000803e3d6000fd5b505050506040513d60208110156118c457600080fd5b5050604080518581529051869133917f90890809c654f11d6e72a28fa60149770a0d11ec6c92319d6ceb2bb0a4ea1a159181900360200190a35050505050565b60001981565b611912611b99565b6001600160a01b031661192361148b565b6001600160a01b03161461196c576040805162461bcd60e51b81526020600482018190526024820152600080516020611c77833981519152604482015290519081900360640190fd5b6001600160a01b0381166119b15760405162461bcd60e51b8152600401808060200182810382526026815260200180611bcb6026913960400191505060405180910390fd5b600080546040516001600160a01b03808516939216917f8be0079c531659141344cd1fd0a4f28419497f9722a3daafe3b4186f6b6457e091a3600080546001600160a01b0319166001600160a01b0392909216919091179055565b6005546001600160a01b031681565b600082611a2a5750600061088b565b82820282848281611a3757fe5b0414611a745760405162461bcd60e51b8152600401808060200182810382526021815260200180611c566021913960400191505060405180910390fd5b9392505050565b6000808211611ad1576040805162461bcd60e51b815260206004820152601a60248201527f536166654d6174683a206469766973696f6e206279207a65726f000000000000604482015290519081900360640190fd5b818381611ada57fe5b049392505050565b600082820183811015611a74576040805162461bcd60e51b815260206004820152601b60248201527f536166654d6174683a206164646974696f6e206f766572666c6f770000000000604482015290519081900360640190fd5b600082821115611b93576040805162461bcd60e51b815260206004820152601e60248201527f536166654d6174683a207375627472616374696f6e206f766572666c6f770000604482015290519081900360640190fd5b50900390565b3390565b6001600160a01b03929092166000908152600a60209081526040808320938352929052208054909101905556fe4f776e61626c653a206e6577206f776e657220697320746865207a65726f20616464726573734d757374206465706f73697420616d6f756e74206d6f7265207468616e205a45524f596f752063616e206e6f742068617276657374206265666f7265207374617274526577617264426c6f636b206f7220616674657220656e64526577617264426c6f636b536166654d6174683a206d756c7469706c69636174696f6e206f766572666c6f774f776e61626c653a2063616c6c6572206973206e6f7420746865206f776e6572a26469706673582212203a2c587a8d221de708ff263cf922aa928456ccfbe6ea736ba54e2601b395a2f064736f6c634300060c0033",
    "sourcePath": "/home/muneeb/work/Bird Money/bird-farm-contracts/contracts/MasterChef.sol",
    "compiler": {
        "name": "solc",
        "version": "0.6.12+commit.27d51765"
    },
    "functionHashes": {
        "BONUS_MULTIPLIER()": "8aa28550",
        "MAX_UINT()": "e5b5019a",
        "add(uint256,address,bool)": "1eaaa045",
        "bonusEndBlock()": "1aed6553",
        "deposit(uint256,uint256)": "e2bbb158",
        "depositRewardTokens(uint256)": "16c621e0",
        "emergencyWithdraw(uint256)": "5312ea8e",
        "endRewardBlock()": "81fa561a",
        "getMultiplier(uint256,uint256)": "8dbb1e3a",
        "getReward(uint256)": "1c4b774b",
        "harvestPendingReward(uint256)": "40303815",
        "massUpdatePools()": "630b5ba1",
        "migrator()": "7cd07e47",
        "owner()": "8da5cb5b",
        "pendingRewardOf(address,uint256)": "c25b905f",
        "pendingRewardToken(uint256,address)": "1653fd33",
        "poolInfo(uint256)": "1526fe27",
        "poolLength()": "081e3eda",
        "renounceOwnership()": "715018a6",
        "rewardToken()": "f7c618c1",
        "rewardTokenPerBlock()": "554c798a",
        "set(uint256,uint256,bool)": "64482f79",
        "setAll(address,uint256,uint256,uint256,uint256,uint256)": "17eba6db",
        "setBonusEndBlock(uint256)": "9e0af234",
        "setEndRewardBlock(uint256)": "4e362966",
        "setMigrator(address)": "23cf3118",
        "setRewardToken(address)": "8aee8127",
        "setRewardTokenPerBlock(uint256)": "d7406965",
        "setStartRewardBlock(uint256)": "62b9e098",
        "setUnstakeFrozenTime(uint256)": "c9cc2e8e",
        "startRewardBlock()": "d7ed714e",
        "totalAllocPoint()": "17caf6f1",
        "transferOwnership(address)": "f2fde38b",
        "uniqueTokenInPool(address)": "d3442705",
        "unstakeFrozenTime()": "838e9c76",
        "updatePool(uint256)": "51eb05a6",
        "userInfo(uint256,address)": "93f1a40b",
        "withdraw(uint256,uint256)": "441a3e70",
        "withdrawRewardTokens(uint256)": "cb43b2dd"
    },
    "gasEstimates": {
        "creation": {
            "codeDepositCost": "1474400",
            "executionCost": "infinite",
            "totalCost": "infinite"
        },
        "external": {
            "BONUS_MULTIPLIER()": "332",
            "MAX_UINT()": "289",
            "add(uint256,address,bool)": "infinite",
            "bonusEndBlock()": "1088",
            "deposit(uint256,uint256)": "infinite",
            "depositRewardTokens(uint256)": "infinite",
            "emergencyWithdraw(uint256)": "infinite",
            "endRewardBlock()": "1088",
            "getMultiplier(uint256,uint256)": "infinite",
            "getReward(uint256)": "1289",
            "harvestPendingReward(uint256)": "infinite",
            "massUpdatePools()": "infinite",
            "migrator()": "1105",
            "owner()": "1104",
            "pendingRewardOf(address,uint256)": "1256",
            "pendingRewardToken(uint256,address)": "infinite",
            "poolInfo(uint256)": "4561",
            "poolLength()": "1045",
            "renounceOwnership()": "infinite",
            "rewardToken()": "1169",
            "rewardTokenPerBlock()": "1065",
            "set(uint256,uint256,bool)": "infinite",
            "setAll(address,uint256,uint256,uint256,uint256,uint256)": "infinite",
            "setBonusEndBlock(uint256)": "infinite",
            "setEndRewardBlock(uint256)": "infinite",
            "setMigrator(address)": "infinite",
            "setRewardToken(address)": "infinite",
            "setRewardTokenPerBlock(uint256)": "infinite",
            "setStartRewardBlock(uint256)": "infinite",
            "setUnstakeFrozenTime(uint256)": "infinite",
            "startRewardBlock()": "1042",
            "totalAllocPoint()": "1044",
            "transferOwnership(address)": "infinite",
            "uniqueTokenInPool(address)": "1247",
            "unstakeFrozenTime()": "1110",
            "updatePool(uint256)": "infinite",
            "userInfo(uint256,address)": "2994",
            "withdraw(uint256,uint256)": "infinite",
            "withdrawRewardTokens(uint256)": "infinite"
        },
        "internal": {
            "savePendingReward(address,uint256,uint256)": "20995"
        }
    }
}